:100000000C94EE000C9416010C9416010C9416013D
:100010000C9416010C9416010C9416010C94A10476
:100020000C9416010C9416010C9416010C941601F4
:100030000C9416010C9416010C9416010C941601E4
:100040000C94BE140C9416010C9416010C94160119
:100050000C9416010C9416010C9416010C941601C4
:100060000C944E130C94160132333A30323A32303B
:1000700000417567203233203230323600000001F3
:10008000010101010101010101010101010202025D
:100090000202020202030303030303040404040430
:1000A00005050505060606070707080808090909E2
:1000B0000A0A0A0B0B0C0C0C0D0D0E0E0F0F101074
:1000C00011111212131314141516161717181919E3
:1000D0001A1A1B1C1C1D1E1E1F2021212223232433
:1000E0002526272728292A2B2B2C2D2E2F3031315E
:1000F00032333435363738393A3B3C3D3E3F404168
:1001000042434445464748494A4B4C4D4F50515253
:100110005354555758595A5B5D5E5F60626364651E
:100120006768696B6C6D6E70717374757778797BC5
:100130007C7E7F818283858688898B8C8E8F91924D
:10014000949597999A9C9D9FA1A2A4A5A7A9AAACB2
:10015000AEAFB1B3B4B6B8BABBBDBFC1C2C4C6C8F6
:10016000CACBCDCFD1D3D5D6D8DADCDEE0E2E4E617
:10017000E8E9EBEDEFF1F3F5F7F9FBFDFF00000027
:100180000800020100000304070000000000000056
:100190000001020408102040800102040810200120
:1001A00002040810200404040404040404020202EB
:1001B00002020203030303030300000000230026DE
:1001C00000290000000000250028002B000000008E
:1001D00000240027002A0000D20BB71011241FBEF4
:1001E000CFEFD8E0DEBFCDBF11E0A0E0B1E0ECE59D
:1001F000F4E302C005900D92AA34B107D9F722E0CA
:10020000AAE4B1E001C01D92A43DB207E1F710E0FD
:10021000CEEED0E004C02197FE010E944119CC3EF1
:10022000D107C9F70E94AF140C942C1A0C9400004B
:10023000CF93DF93EB010E94161A8883CE01DF91E2
:10024000CF910895CF93DF93EC01188219821A821F
:100250001B82411551056105710521F445E050E00F
:1002600060E070E04C835D836E837F830E9408159D
:10027000688379838A839B83DF91CF910895CF929E
:10028000DF92EF92FF920F931F93CF93DF93EC01D6
:100290000E940815AB01BC0188819981AA81BB81AC
:1002A0000C811D812E813F816A017B01C81AD90A08
:1002B000EA0AFB0AC016D106E206F30600F1401B6B
:1002C000510B620B730B800F911FA21FB31F80177E
:1002D0009107A207B30728F084179507A607B70769
:1002E00090F388839983AA83BB8381E0DF91CF91C8
:1002F0001F910F91FF90EF90DF90CF90089580E0D5
:10030000F5CFCF93DF93EC010E94081568837983C2
:100310008A839B83DF91CF910895FF920F931F9360
:10032000CF93DF93EC01F62E08811981C8010E945A
:10033000161AF81621F06F2DC8010E941E1ACE0160
:10034000DF91CF911F910F91FF9008950F931F930D
:10035000CF93DF9300D0CDB7DEB78B019A8389832B
:10036000FB016081CE0101960E948D01C8010F90B2
:100370000F90DF91CF911F910F910895482FE62F95
:10038000282F30E0863009F459C000F58330E1F1C0
:10039000853009F44FC04830E0F14E3010F144315F
:1003A00008F063C02E50310981E090E0A0E0B0E099
:1003B00004C0880F991FAA1FBB1F2A95D2F728B126
:1003C000EE2309F44FC0822B88B908958A30C9F111
:1003D0008B30D9F18930F9F6809180008F77809346
:1003E00080002850310981E090E0A0E0B0E004C036
:1003F000880F991FAA1FBB1F2A95D2F7E1112EC0A3
:1004000025B1809582232CC09091B0009F7D909360
:10041000B00081E090E0A0E0B0E004C0880F991F38
:10042000AA1FBB1F4A95D2F72BB1EE23A1F0822B56
:100430008BB9089594B59F7D94BDEBCF94B59F770C
:10044000FBCF809180008F7DCACF8091B0008F77E5
:100450008093B000C6CF80958223EACF25B1822B4E
:1004600085B9089580958223AFCF089561157105F0
:1004700019F460E00C94BE018630D9F028F4833082
:1004800039F1853089F008958A30C1F08B3041F11F
:10049000893069F580918000806880938000709336
:1004A000890060938800089584B5806284BD68BD2A
:1004B000089584B5806884BD67BD089580918000EB
:1004C00080628093800070938B0060938A0008950F
:1004D0008091B00080628093B0006093B400089572
:1004E0008091B00080688093B0006093B30008955D
:1004F0000F931F93CF93DF9380910002811187C0E8
:1005000087EE91E00E943F01882309F480C00091AA
:100510000B01002309F473C0C0916D01D0916E01ED
:1005200080917201882309F44BC010E0809173011F
:10053000811128C081E080937301B801012E000C65
:10054000880B990B0E94AC179B01AC0160E070E036
:1005500080E090E40E94091720E030E040E05FE393
:100560000E94791820E030E44CE955E40E947918A3
:100570000E947B176093EB017093EC018093ED0177
:100580009093EE012296D0936E01C0936D01C01737
:10059000D10734F01092720110936E0100936D0137
:1005A000E0916D01F0916E01FF27E358FF4F6491D8
:1005B00070E08BE0DF91CF911F910F910C94360288
:1005C0002297D0936E01C0936D0165974CF781E03F
:1005D0008093720184E190E090936E0180936D01AD
:1005E00080E991E0A0E0B0E08093EB019093EC0112
:1005F000A093ED01B093EE0110927301D1CF60E0B2
:100600008BE0DF91CF911F910F910C942D16DF910C
:10061000CF911F910F91089580917501882309F45E
:1006200043C08FEE91E00E943F01882309F43CC053
:1006300080916F019091700120916A0130E04091AA
:1006400074014423F1F0820F931F90937001809303
:100650006F0120910C0130E08217930734F0109263
:1006600074013093700120936F01E0916F01F0915C
:100670007001FF27E358FF4F649170E08AE00C940B
:100680003602821B930B9093700180936F011816B2
:1006900019065CF381E08093740110927501109249
:1006A000700110926F01E1CF089520910D01822F0A
:1006B00090E020939F012093A0012093A10120931B
:1006C000A20102968931910514F088E190E08093AF
:1006D000A3018093A4010895CF938091780187317D
:1006E00019F0873008F064C083E080930D018FE03B
:1006F00080930C0182E380930B010E94550360916B
:100700000C0170E090E080E00E94AA179B01AC0110
:100710000E94861620E030E04AEF53E40E94091759
:1007200020E030E040EA51E40E9479180E94F2167D
:100730000E947B17662309F443C060936A01C0914D
:100740000B01CC2321F16C2F70E090E080E00E943F
:10075000AC179B01AC0160E070E080E090E40E9487
:10076000091720E030E040E05FE30E94791820E0C4
:1007700030E44CE955E40E9479180E947B1760939D
:10078000EB017093EC018093ED019093EE01809169
:100790000D0190E090936C0180936B0180910002B9
:1007A000813091F46C2F70E08BE0CF910C94360285
:1007B00087E180930D0183E280930C018AEF9BCF48
:1007C00081E080936A01BBCFCF9108951F93CF93AF
:1007D000DF93C3E019E0DAE090E080E0FC01E75647
:1007E000FE4F208121502083208127FD1083019618
:1007F0008630910599F76AE070E080E090E00E9411
:100800003915D15049F7C15031F7DF91CF911F9180
:10081000089580915401811144C0809176018850DF
:100820008F3208F08DC087ED91E00E943F01882350
:1008300009F486C081E08093540110925301109214
:10084000570126E030E040E050E062E070E080E0F8
:1008500090E00E9490146093560126E030E040E062
:1008600050E060E070E0CB010E949014609355016D
:1008700026E030E040E050E061E070E080E090E0B1
:100880000E9490149B01AC01A4E1B0E00E945619B3
:100890006093DB017093DC018093DD019093DE01B6
:1008A000089587ED91E00E943F01882309F448C034
:1008B00080915301E0915501F0E090910D01899FE5
:1008C000902D1124E156FE4F908391E0892780936B
:1008D000530126E030E040E050E061E070E080E06D
:1008E00090E00E9490149B01AC01A4E1B0E00E9452
:1008F00056196093DB017093DC018093DD019093C6
:10090000DE01809157018F5F8093570190915601CE
:100910009817B0F420EC34ED41E050E060E375E767
:1009200080E090E00E9490146093DB017093DC0102
:100930008093DD019093DE01109254010C945503D5
:1009400008951F920F920FB60F9211242F933F9389
:100950004F935F938F939F93AF93BF93EF93FF93C7
:10096000809111018F5F90919801981309C0209197
:100970000E01E0910F01F09110019081922390837C
:100980008A3108F454C010921101809112018F5FD6
:10099000863008F080E08093120190E0FC01E1567F
:1009A000FE4F308130939801FC01EE0FFF1FE55799
:1009B000FE4F408151815093100140930F01FC0183
:1009C000EB57FE4F208120939701209520930E0135
:1009D0003323F1F0FC01EC5FFE4F20812223C1F0B4
:1009E00087569E4FDC01EC9188B1EB3008F0EAE0CD
:1009F000F0E0E658FE4F807F9081892B88B9909176
:100A00009701E0910F01F09110018081892B808383
:100A1000FF91EF91BF91AF919F918F915F914F9116
:100A20003F912F910F900FBE0F901F9018958093BC
:100A30001101EECF362F2AE0622F0E94E618E9E975
:100A4000F1E080839183832F0E94E6188283938351
:100A5000842F0E94E618848395830895DF92EF9295
:100A6000FF920F931F93CF93DF93CDB7DEB72897F5
:100A70000FB6F894DEBF0FBECDBF86E00E94AD1565
:100A80008C0187E00E94AD15B801680F791F072E11
:100A9000000C880B990B0E946E1461E08EE00E949E
:100AA000F11561E08FE00E94F11561E080E10E94A4
:100AB000F11561E081E10E94F11507E211E0780192
:100AC000F701D1907F0161E08D2D0E94F11560E06A
:100AD0008D2D0E942D16FDE2EF16F1E0FF0681F745
:100AE00061E089E00E94F11561E08AE00E94F11561
:100AF00061E08BE00E94F11562E08CE00E94F1154C
:100B0000ABE8B1E045E8E42E41E0F42E45E250E0E8
:100B100031E06BE270E0F80121918F01822F90E0CB
:100B2000283008F05DC111967C936E93832F01C02D
:100B3000880F2A95EAF7F70180831296FFEFEF1AE4
:100B4000FF0A21E00D32120731F7EDE2F1E0AAE7EA
:100B5000B1E047E351E03191832F90E032FB22274F
:100B600020F9BC0113E0660F771F1A95E1F7687052
:100B7000262B3270232B03E0959587950A95E1F794
:100B8000880F991F880F991F8470822B8D934E17A1
:100B90005F0709F78FE08093840180918100887F4F
:100BA0008160809381006EEB70E089E00E943602E4
:100BB0008FEF91E00E94FD0D8FEF91E00E94540FA6
:100BC000882361F048E650E061E770E0CE010196CD
:100BD0000E94720DCE0101960E94CC0ECE010196AC
:100BE0000E94A70E8E81809376018D81809377017C
:100BF0008C818093780183E08093B0008091B10074
:100C0000887F81608093B1008091700082608093C2
:100C100070008FEF93E00E94161A843641F18FEF37
:100C200093E098878F8364E6CE0107960E948D013A
:100C300080E094E098878F8360E0CE0107960E9461
:100C40008D016BE171E090E080E00E94A60160E020
:100C500072E081E090E00E94A60182E090E0988737
:100C60008F8360911301CE0107960E948D016BE185
:100C700071E090E080E00E94180160E072E081E0A5
:100C800090E00E94180182E090E00E94161A809382
:100C9000130190911B0180911401981718F081E0C5
:100CA00080931B0180910002833010F010920002AB
:100CB0004091760160917701809178010E941A0538
:100CC0000E946C0360910C0170E090E080E00E9453
:100CD000AA179B01AC010E94861620E030E04AEF83
:100CE00053E40E94091720E030E040EA51E40E94FA
:100CF00079180E94F2160E947B17662309F47BC0C4
:100D000060936A0160910B01662319F170E090E035
:100D100080E00E94AC179B01AC0160E070E080E0D5
:100D200090E40E94091720E030E040E05FE30E9479
:100D3000791820E030E44CE955E40E9479180E94CB
:100D40007B176093EB017093EC018093ED0190931E
:100D5000EE0120EC34ED41E050E060E375E780E027
:100D600090E00E9490146093DB017093DC0180930B
:100D7000DD019093DE0180910D0190E090936C0174
:100D800080936B01E0911B01F0E0EB5EFE4F8081F0
:100D900090E0B0E0A0E08093E3019093E401A093A1
:100DA000E501B093E6018CE00E945B1621E000971C
:100DB00009F420E020930A01892B09F110925201D5
:100DC0000E94E60328960FB6F894DEBF0FBECDBF93
:100DD000DF91CF911F910F91FF90EF90DF900895D9
:100DE00011965C934E930897F32F01C0FF0F8A95DD
:100DF000EAF78F2FA0CE81E080936A0183CF81E054
:100E00008093520180917801809350018091770105
:100E100080934F01D5CF362F2AE0622F0E94E6182B
:100E2000E9E9F1E080839183832F0E94E6188283B1
:100E300093830895AF92BF92CF92DF92EF92FF9289
:100E40000F931F93CF93DF9380911B01811109C0F2
:100E500060917701809178010E940B0710926901DF
:100E600055C0813009F073C09091600191111AC092
:100E700080936001A1E6B1E0E5E6F1E090E080E07A
:100E8000EC01C756DE4F28815D91022E000C330B1A
:100E900041E05217130609F440E041930196843073
:100EA000910571F78FED91E00E943F01882371F168
:100EB00080916B0190916C0120917101211131C0E1
:100EC000019790936C0180936B01181619066CF0D2
:100ED00081E08093710110926C0110926B0160911E
:100EE0007701809178010E940B0720916B01E5E664
:100EF000F1E090E080E03191332321F0DC01A15654
:100F0000BE4F2C93019684309105A9F7DF91CF91C4
:100F10001F910F91FF90EF90DF90CF90BF90AF9017
:100F20000895019690936C0180936B0120910D01BF
:100F300030E082179307CCF21092710130936C016C
:100F400020936B011092600110926901CECF823024
:100F500009F052C08091600181111BC081E0809333
:100F60006001A1E6B1E0E5E6F1E090E080E0EC01AF
:100F7000C756DE4F28815D91022E000C330B41E0F5
:100F80005217130609F440E041930196843091050D
:100F900071F78FED91E00E943F01882309F4B6CFED
:100FA000A5E6B1E090E080E020E069E03D913323E8
:100FB00009F1FC01E756FE4F30813150308330811A
:100FC00037FD60834081042E000C550BFC01EF5966
:100FD000FE4F30813417150619F4FD013197108248
:100FE00001968430910511F7243009F08FCF1092CB
:100FF000600134CF2F5FF4CF833009F07CC0809143
:101000006001811143C081E08093600161E671E07D
:10101000E5E6F1E0C8E5D1E09CE5A92E91E0B92E26
:1010200050E040E001E0CA0187569E4F7C01DC01A0
:101030008C91DB011D91BD01082E000C990B181736
:10104000190609F450C000838DE1C82E81E0D82E26
:1010500080E0D6019D916D01D7012C91022E000CEC
:10106000330B9217130611F4D5018C93191301C099
:1010700088838F5F8A3069F74F5F5F4F3196219683
:10108000BFEFAB1ABB0A4430510569F68FED91E012
:101090000E943F01882309F439CFC5E6D1E0ACE5D1
:1010A000B1E090E080E020E03991332311F16C91C0
:1010B000AC01485A5E4FFA013081EFEF361718F055
:1010C000631798F4E1E0E60FEC93F0E0E35EFE4F87
:1010D0003081FC01E756FE4F308301961196843033
:1010E000910511F781CF1082C7CFFE013197108291
:1010F000F4CF2F5FF2CF843009F05EC080916001A1
:1011000081110BC081E08093600110924D018093AA
:101110004B018FED91E00E9481018FED91E00E94E3
:101120003F01882309F4F2CE80914D0190914B014B
:10113000282F30E0A901992349F123E030E08217FC
:1011400068F4A90141505109FA01E756FE4F908118
:1011500027563E4FD9019C939A01F1CFE82FF0E03A
:10116000EC5FFE4F10828F5F80934D01843008F456
:10117000CDCE10924B0110924D01C8CEFA01E75628
:10118000FE4F9081FA01E656FE4F9083415051097F
:10119000A8F7E4E6F1E0E21BF30B9081909399014C
:1011A0002C5F3E4F91E0F90190838F5F80934D015A
:1011B000843008F01CCFAACE853009F0A7CE8091EC
:1011C0006001811109C081E08093600110924C019F
:1011D0008FED91E00E9481018FED91E00E943F012F
:1011E000882309F493CEE0914C0181E08E0F809327
:1011F0004C01E150E53108F089CEF0E0EE5FF64FAA
:101200000C94411917091A09170924092E091709FD
:1012100033093D094209170947094F09540959097A
:101220005E09610966096B096E097309F707109277
:1012300007016CCE1092060180919B0180939C0166
:1012400081E08093070162CE1092050180919A019E
:1012500080939B0181E08093060158CE1092060195
:1012600080919A01EBCF10920401809199018093B3
:101270009A0181E08093050149CE10920501809189
:101280009901E6CF1092060180919901D7CF809104
:1012900064018093990181E08093040137CE10921C
:1012A000040180916401E3CF1092050180916401F3
:1012B000CFCF1092060180916401C0CF809163016D
:1012C000E8CF1092040180916301D1CF1092050103
:1012D00080916301BDCF80916201DBCF1092040148
:1012E00080916201C4CF80916101D3CFCF93C0912F
:1012F0005201C130F9F48FEC91E00E943F01882344
:10130000C9F060914F01809150010E940B0710922B
:101310009D0110929E0180914E018C2780934E0179
:10132000882351F0C0930401C0930501C0930601C6
:10133000C0930701CF91089580915101811105C09B
:101340001092040110920501F5CF1092060110923F
:101350000701F0CF80915101811117C08091500198
:101360008F5F88317CF4809350018091500187FF1A
:1013700003C087E18093500160914F01809150013B
:101380000C940B0710925001F0CF80914F018F5FAA
:101390008C3354F480934F0180914F0187FFECCF41
:1013A0008BE380934F01E8CF10924F01F5CF6AE0B5
:1013B0000E94E618E9E9F1E084839583089580911D
:1013C0007801E1E6F1E02AE0622F0E94E6188083CE
:1013D0009183809177010E94E61882839383089518
:1013E000CF92EF92FF920F931F93CF93DF9300D092
:1013F00000D000D0CDB7DEB786EB91E00E94680C3C
:1014000085EA91E00E94680C8CE00E945B167C01EA
:1014100011E0892B09F410E080910A01811709F489
:1014200045C065E070E080E090E00E9439158CE0F6
:101430000E945B1618171906C9F510930A01EF28C8
:1014400009F466C010925201009150010093780196
:10145000E0904F01E092770110927601C12C21E0DB
:1014600041E06AEE77E0CE0101960E945E0DCE016A
:1014700001960E94CC0E81E08093040180930501C7
:1014800080930601809307018093080180930901EE
:101490000E946C0340917601609177018091780100
:1014A0000E941A0587EF91E00E948101109152017C
:1014B00086EB91E0113009F055C00E941B0D882386
:1014C00029F08091510181278093510185EA91E0B3
:1014D0000E941B0D81110E94AA0985EA91E00E94D9
:1014E000430D882339F087EC91E00E943F01811180
:1014F0000E94AA0926960FB6F894DEBF0FBECDBF94
:10150000DF91CF911F910F91FF90EF90CF900895B1
:1015100081E0809352011092510190917801909353
:1015200050019091770190934F0180930401809333
:101530000501809306018093070180930801809341
:1015400009010E9455031092690110926001609197
:101550004F01809150010E940B0710929D01109243
:101560009E01A4CF0E941B0D8823C9F08091000228
:101570008F5F833008F078C08093000260E072E0F3
:1015800081E090E00E94A60180910002813009F084
:101590006EC060910B0170E08BE00E94360286EB1A
:1015A00091E00E942F0D8823B1F06091130181E03A
:1015B00068276093130182E090E09A838983CE01CB
:1015C00001960E948D0180911301811104C0109237
:1015D00054010E94550385EA91E00E941B0D882367
:1015E00009F488CF80911B018F5F80931B0190913C
:1015F0001401891710F010921B016BE171E090E06B
:1016000080E00E94A601E0911B01F0E0EB5EFE4F3E
:10161000808190E0B0E0A0E08093E3019093E4014A
:10162000A093E501B093E6010E94550311E01093E9
:101630000401109305011093060110930701109304
:1016400008011093090180911B01809399018093F7
:101650009A0180939B0180939C010E94DF09109363
:1016600069011092600146CF1092000287CF82304C
:1016700009F095CF60E08BE00E942D1690CFCF93BC
:10168000DF9300D000D000D0CDB7DEB790917901C4
:1016900081E0982790937901992309F444C08093BD
:1016A0007501809374011092700110926F019091F6
:1016B00076019F5F909376019C33CCF090917701F7
:1016C0008093690110927601890F80937701809150
:1016D0004A018F5F8F3080F580934A0180917701B6
:1016E0006FE00E94F218911102C00E94E6038091FF
:1016F00077018C335CF010927701809178018F5FD5
:10170000883154F5809378010E946C0380916901BF
:1017100081110E94DF0980915201811104C08091E2
:1017200076010E94D70926960FB6F894DEBF0FBE49
:10173000CDBFDF91CF91089510924A01CE0101965D
:101740000E94A70E8E81809376018D818093770110
:101750008C8180937801C2CF10927801D5CF87EF2A
:1017600091E00E943F0181110E943F0B809169012D
:10177000882331F080915201811102C00E941A0722
:101780000E940C030E94780280911301882331F09B
:1017900080915201811102C00E9409040E94F00947
:1017A0000C94760944EF51E060E070E087EF91E03F
:1017B0000E94220144E150E060E070E08FEE91E091
:1017C0000E9422014EE150E060E070E087EE91E07F
:1017D0000E942201E0911B01F0E0EB5EFE4F408190
:1017E00050E070E060E08FED91E00E94220148EE51
:1017F00053E060E070E087ED91E00E94220144EF49
:1018000051E060E070E08FEC91E00E94220148E737
:1018100050E060E070E087EC91E00E94220120E05F
:1018200040E067E086EB91E00E94430C20E040E05E
:1018300068E085EA91E00C94430CFC01818160FB37
:1018400085F981838281662319F060E00C94F1159B
:1018500062E0FCCFFC018CE390E09483838384EF0F
:1018600091E09683858380E991E0928781878CE27D
:1018700091E0908787838181877C8F7B818360E083
:10188000CF010C941D0C0F931F93CF93DF93EC01AA
:10189000042F122F1C821B821E821D8218861F821B
:1018A0001A8619861B861C861D861E861F86188A28
:1018B0006A830E942A0C602FCE010E941D0C898130
:1018C00010FB83F98983DF91CF911F910F910895C8
:1018D0000F931F93CF93DF93EC01898184FD14C094
:1018E0008A810E945B16398133FB222720F935FB60
:1018F000332730F9232731E0892B09F030E0232703
:10190000888120FB80F98883888180FF90C082FDD8
:101910008EC081FD6BC0826088830E9408156D8730
:101920007E878F87988B888180FD13C082FF3CC0A3
:10193000837F806488830E9408156D877E878F87E8
:10194000988B89818E7F898381FF03C08D7F84601E
:101950008983888182FF28C080FF26C00E940815E5
:101960000D851E852F853889AB01BC01401B510BAD
:10197000620B730B8D819E81B0E0A0E04817590780
:101980006A077B0788F0888183FD0EC01B8688600C
:1019900080628883898181608D7F89830E94081598
:1019A0006D877E878F87988B0E9408150D851E8511
:1019B0002F853889AB01BC01401B510B620B730BA7
:1019C0008F819885B0E0A0E0481759076A077B0728
:1019D00040F08B85882329F08C871B868881806165
:1019E0008883DF91CF911F910F9108950E94081570
:1019F0000D851E852F853889AB01BC01401B510B1D
:101A0000620B730B8B819C81B0E0A0E048175907F3
:101A10006A077B0708F487CF88819B859F5F9B8738
:101A20008460806888838981826089837CCF888193
:101A30008D7F888378CFCF93DF93EC01898186FFF8
:101A400003C0CE010E94680C998192FB882780F91F
:101A500092FF02C09B7F9983DF91CF910895CF932E
:101A6000DF93EC01898186FF03C0CE010E94680CE0
:101A7000988195FB882780F995FF02C09F7D988308
:101A8000DF91CF910895CF93DF93EC01898186FF99
:101A900003C0CE010E94680C89818170DF91CF91D3
:101AA0000895FC01908190539A3008F090E0818174
:101AB00080532AE0929F800D11240895CF92EF92D7
:101AC0000F93FC01603D87E0780710F0605D774080
:101AD0006083418322830383E482C5820F91EF9068
:101AE000CF900895EF92FF920F931F93CF93DF93C0
:101AF000CDB7DEB72B970FB6F894DEBF0FBECDBFC4
:101B00008C017A014BE050E0CE0101960E940D1A43
:101B1000CE010A960E94510DF8018083E981E154BB
:101B2000E33118F50E2E000CFF0BE756F24F0C9424
:101B30004119E70DB50DB50DFB0DB50DE50DB50D55
:101B4000B50DB50DAC0DB50DB50DEE0DF90DF70DCF
:101B5000B50DB50DB50DF50D8A81813691F18B81ED
:101B60008E3689F187E0F8018183CE0105960E94C7
:101B7000510DF801828348E050E0B701CE01019693
:101B80000E940D1ACE0101960E94510DF801838327
:101B9000CE0104960E94510DF8018483CE01079670
:101BA0000E94510DF80185832B960FB6F894DEBF85
:101BB0000FBECDBFDF91CF911F910F91FF90EF909E
:101BC000089581E0D0CF86E0CECF82E0CCCF8B816C
:101BD000823711F088E0C7CF84E0C5CF8B81823790
:101BE00011F085E0C0CF83E0BECF89E0BCCF8AE0B2
:101BF000BACF8BE0B8CF8CE0B6CF81E092E00E9404
:101C00001A1081E00895CF92DF92FF920F931F93F5
:101C1000CF93DF936C0168E670E081E092E00E9470
:101C2000361060E081E092E00E94BE0F81E092E019
:101C30000E94B41047E050E068E670E081E092E076
:101C40000E94B11081E092E00E94650F8F77282FEB
:101C500030E094E0359527959A95E1F7922F990F0A
:101C6000990FC22FC91BCC0FC80F81E092E00E94D0
:101C7000650F9C0144E0359527954A95E1F72F7053
:101C80003327922F990F990FD22FD91BDD0FD80F21
:101C900081E092E00E94650F9C0154E03595279504
:101CA0005A95E1F72F703327922F990F990F122F22
:101CB000191B110F180F81E092E00E94650F81E05F
:101CC00092E00E94650F9C0164E0359527956A9526
:101CD000E1F72F703327922F990F990F022F091BCD
:101CE000000F080F81E092E00E94650F9C0174E0F4
:101CF000359527957A95E1F72F703327922F990F15
:101D0000990FF22EF91AFF0CF80E81E092E00E9472
:101D1000650F9C01E4E035952795EA95E1F72F7072
:101D20003327922F990F990F291B220F820FF6014B
:101D30008083F18202831383D483C583C601DF913C
:101D4000CF911F910F91FF90DF90CF900895CF9387
:101D5000DF93EC010E94030ECE01DF91CF91089535
:101D6000CF93C82F68E681E092E00E942C106C2F80
:101D700081E092E00E94BE0F81E092E00E94B410E8
:101D800041E068E681E092E00E94AE1081E092E0DE
:101D90000E94650FCF9108951F93CF93DF93EC01BD
:101DA00068E670E081E092E00E94361060E081E039
:101DB00092E00E94BE0F2D811AE0822F612F0E94B7
:101DC000E618682F660F680F660F620F81E092E0D9
:101DD0000E94BE0F2C81822F612F0E94E618682F6F
:101DE000660F680F660F620F81E092E00E94BE0FDF
:101DF0002B81822F612F0E94E618682F660F680FD3
:101E0000660F620F81E092E00E94BE0F60E081E009
:101E100092E00E94BE0F2A81822F612F0E94E61855
:101E2000682F660F680F660F620F81E092E00E94D4
:101E3000BE0F2981822F612F0E94E618682F660F3E
:101E4000680F660F620F81E092E00E94BE0F28814A
:101E5000822F612F0E94E618682F660F680F660FA9
:101E6000620F81E092E00E94BE0F81E092E00E944A
:101E7000B4108FE00E94B00EC82F68E681E092E0B7
:101E80000E942C106FE081E092E00E94BE0F6C2F48
:101E90006F7781E092E00E94BE0F81E092E0DF91D7
:101EA000CF911F910C94B4108FE00E94B00E87FB6D
:101EB000882780F9089590E080E0089580913502A8
:101EC00090913602891B990B08959091360280916A
:101ED00035022FEF3FEF981748F4E92FF0E0E95C67
:101EE000FD4F208130E09F5F90933602C901089535
:101EF000E091360280913502E81730F4F0E0E95CB9
:101F0000FD4F808190E008958FEF9FEF0895089531
:101F1000CF93DF93EC01E0910D02F0910E02309728
:101F2000F1F090913602809135029817C0F090E060
:101F3000292F30E02617370754F4DE01A20FB31F14
:101F40004C91295C3D4FD9014C939F5FF1CF10928A
:101F5000360260933502CB01DF91CF910994DF9176
:101F6000CF910895E0910F02F0911002309729F07F
:101F7000109213021092120209940895CF93DF93E6
:101F80001F92CDB7DEB76983209111022223F9F0A9
:101F900020911202203258F021E030E0FC0133831E
:101FA000228390E080E00F90DF91CF91089580919F
:101FB0001302E82FF0E0EC5EFD4F998190838F5F74
:101FC000809313028093120281E090E0ECCF61E0F5
:101FD000CE0101960E94F310F7CFCF92DF92EF92DD
:101FE000FF920F931F93CF93DF937C01CB018A0164
:101FF00020911102222389F0EB016B01C40ED51E42
:10200000CC15DD0569F06991D701ED91FC91019046
:10201000F081E02DC7010995F3CF642F0E94F310E2
:10202000C801DF91CF911F910F91FF90EF90DF904A
:10203000CF9008951092360210923502109213023A
:10204000109212020E94C81082EB9FE00E941F11A2
:1020500088E89FE00C941A1181E08093110260934C
:102060003402109213021092120208950C942C1054
:102070000F93062F21E04091120264E172E08091FB
:1020800034020E9424121092130210921202109233
:1020900011020F9108954F925F926F927F92AF92CB
:1020A000BF92CF92EF92FF920F931F93CF93DF9344
:1020B0005C01F62ED42F28013901EE2019F10E947F
:1020C0002C10CE2DC43008F0C3E0C150B8F028E089
:1020D000C29FC0011124A301920104C056954795E7
:1020E000379527958A95D2F7B901D501ED91FC91E5
:1020F0000190F081E02DC5010995E7CF60E0C501B1
:102100000E9438104D2FD13208F040E22C2D67E3A9
:1021100072E08F2D0E94401110923602809335029A
:10212000DF91CF911F910F91FF90EF90CF90BF90D3
:10213000AF907F906F905F904F900895CF92EF9205
:102140000F931F93C22EE12C00E010E098010E9433
:102150004B101F910F91EF90CF90089521E00C94B8
:102160009E1021E00C949E1061E00C943810E1E088
:10217000F2E01382128288EE93E0A0E0B0E0848364
:102180009583A683B7838BE391E091838083089541
:102190001092CA0281E08093C8021092C70261E0E7
:1021A00082E10E942D1661E083E10E942D16E9EB89
:1021B000F0E080818E7F808380818D7F808388E4C2
:1021C0008093B80085E48093BC000895ECEBF0E0C8
:1021D00080818A7B808360E082E10E942D1660E02E
:1021E00083E10C942D1620917902260F3327331F9B
:1021F00021323105ECF42091CA02FC0190E080E02C
:10220000243069F082E00895A09179022191AC0117
:1022100045585D4FA40FB52FB11D2C93019686171D
:1022200098F380917902680F6093790280E00895B5
:1022300081E008959093BE028093BD02089590932B
:10224000C0028093BF02089585EC8093BC00109279
:10225000CA020895CF93DF9391E09093C20288233E
:1022600061F0C091B800D091BA000E94E6100E94BF
:10227000C810D093BA00C093B800DF91CF910895F1
:102280004F925F926F927F928F929F92AF92BF9286
:10229000CF92DF92EF92FF920F931F93CF93DF9332
:1022A000D82F162F072FC42FB22E413208F0A3C00B
:1022B0000E9414156B017C018091CA02811176C0C5
:1022C00081E08093CA02B092C8029FEF90935702B8
:1022D00010929C029C0F90939B028093C902809164
:1022E000C902DD0FD82BD093C9028091C70281307B
:1022F00009F083C01092C7020E9414156B017C0183
:102300008091C9028093BB008091C3029091C40266
:10231000A091C502B091C602892B8A2B8B2BA1F00C
:102320000E9414158090C3029090C402A090C50230
:10233000B090C6026C197D098E099F098616970612
:10234000A806B90608F453C08091BC0083FDD8CF1D
:1023500085EC8093BC000E9414156B017C01809178
:10236000CA02813009F44BC080919C028C1710F492
:10237000C0919C02ADE9B2E0912FE12FF02F8E2F9A
:10238000891B8C1708F45DC08C2FDF91CF911F91B2
:102390000F91FF90EF90DF90CF90BF90AF909F9004
:1023A0008F907F906F905F904F9008958091C302BF
:1023B0009091C402A091C502B091C602892B8A2BCC
:1023C0008B2B09F479CF0E9414154090C3025090D2
:1023D000C4026090C5027090C6026C197D098E0916
:1023E0009F09461657066806790608F065CF809162
:1023F000C1020E942A11C0E0C7CF85EEAACF80910A
:10240000C3029091C402A091C502B091C602892B6B
:102410008A2B8B2B09F4A3CF0E9414158090C30242
:102420009090C402A090C502B090C6026C197D09BC
:102430008E099F0986169706A806B90608F08FCF61
:10244000D6CF8D9181939BCF4F925F926F927F9267
:102450008F929F92AF92BF92EF92FF920F931F9332
:10246000CF93DF93413208F0D9C0F22ED42FE72E5C
:10247000162FC82F0E9414154B015C018091CA02CF
:10248000811170C082E08093CA020093C8028FEF6E
:102490008093570210929C02D0939B02912FADE93A
:1024A000B2E0E12FFE2D8E2F891B8D1708F48FC00F
:1024B0001092C9028091C902CC0FC82BC093C902E7
:1024C0008091C702813009F085C01092C7020E9436
:1024D00014154B015C018091C9028093BB0080916F
:1024E000C3029091C402A091C502B091C602892B8B
:1024F0008A2B8B2BA1F00E9414150091C30210911E
:10250000C4022091C5023091C602681979098A096E
:102510009B09061717072807390708F444C080915C
:10252000BC0083FDD8CF85EC8093BC000E941415BD
:102530004B015C01FF2029F08091CA02823009F42E
:102540004BC0809157028F3F09F46AC080915702B7
:10255000803209F467C080915702803309F464C067
:1025600084E026C08091C3029091C402A091C5026C
:10257000B091C602892B8A2B8B2B09F47FCF0E9446
:1025800014154090C3025090C4026090C502709030
:10259000C602681979098A099B0946165706680612
:1025A000790608F06BCF8091C1020E942A1185E064
:1025B000DF91CF911F910F91FF90EF90BF90AF905F
:1025C0009F908F907F906F905F904F900895819132
:1025D0008D9369CF85EEA8CF8091C3029091C402FC
:1025E000A091C502B091C602892B8A2B8B2B09F4CE
:1025F000A1CF0E9414150091C3021091C402209132
:10260000C5023091C602681979098A099B09061723
:1026100017072807390708F08DCFC5CF81E0C8CF4D
:1026200080E0C6CF82E0C4CF83E0C2CF85ED809347
:10263000BC008091C3029091C402A091C502B091E8
:10264000C6020796A11DB11D23E0B695A7959795E3
:1026500087952A95D1F72091BC0024FD03C01092E4
:10266000CA0208954091C3025091C4026091C5020C
:102670007091C602452B462B472B69F30097A105A5
:10268000B10541F02AE22A95F1F700C00197A109AE
:10269000B109E1CF8091C1020C942A111F920F92CF
:1026A0000FB60F9211242F933F934F935F936F9325
:1026B0007F938F939F93AF93BF93EF93FF938091FB
:1026C000B900887F803609F44CC008F03FC08832DA
:1026D00009F4A8C018F5803109F49CC0B8F4882327
:1026E00009F4F9C0883009F495C0FF91EF91BF91CA
:1026F000AF919F918F917F916F915F914F913F919A
:102700002F910F900FBE0F901F901895883109F4EC
:1027100089C0803251F78093570215C0803409F484
:102720009EC048F48033B9F38833F9F6809357029A
:102730000E942411DACF803509F485C0883509F468
:1027400096C0883491F60E941613CFCF883909F4C9
:102750008CC038F5883729F050F4883611F080376E
:1027600021F683E08093CA021092580257C088383D
:1027700009F47BC0803919F0803809F0B6CF809118
:102780005802803208F071C0E091580281E08E0F4B
:10279000809358028091BB00F0E0E75AFD4F8083A0
:1027A0003DC0803B39F0E0F4803A09F479C0883AC2
:1027B00009F09BCF84E08093CA0210927A021092B3
:1027C0007902E091BF02F091C002099580917902EF
:1027D00081110FC081E08093790210927B0209C0C1
:1027E000803C09F476C0883C09F473C0883B09F04A
:1027F0007CCFE0917A0281E08E0F80937A02F0E044
:10280000E558FD4F80818093BB0090917A028091C2
:10281000790229C08091C9028093BB0085EC809326
:10282000BC0063CF90919C0280919B02981758F551
:10283000E0919C0281E08E0F80939C02F0E0E356D1
:10284000FD4F8081E9CFE0919C0281E08E0F809363
:102850009C028091BB00F0E0E356FD4F8083909195
:102860009C0280919B029817C8F285E8D8CFE0912E
:102870009C0281E08E0F80939C028091BB00F0E06F
:10288000E356FD4F80838091C80281115CCF81E0C7
:102890008093C70284EA8093BC001092CA0225CFBD
:1028A0000E94241180915802803230F4E091580245
:1028B000F0E0E75AFD4F10826091580270E0E0911D
:1028C000BD02F091BE0289E592E00995109258028E
:1028D0000CCF85ECE0CF1092570235CF6115710512
:1028E0008105910511F00C94041A0895CF92DF929E
:1028F000EF92FF926B017C01C114D104E104F10459
:1029000041F00E94B519A70196010E9422196B019E
:102910007C01C701B601FF90EF90DF90CF90089542
:10292000CF92DF92EF92FF926B017C01C216D30629
:10293000E406F50664F4CA01B9016C197D098E0933
:102940009F090E947614C60ED71EE81EF91EC70105
:10295000B601FF90EF90DF90CF90089508950E9408
:1029600072150E94AE140E942E05C0E0D0E00E94B5
:10297000AF0B2097E1F30E940000F9CF1F920F9256
:102980000FB60F9211242F933F938F939F93AF9382
:10299000BF938091CC029091CD02A091CE02B091D4
:1029A000CF023091CB0223E0230F2D3758F501964B
:1029B000A11DB11D2093CB028093CC029093CD0238
:1029C000A093CE02B093CF028091D0029091D10219
:1029D000A091D202B091D3020196A11DB11D8093A6
:1029E000D0029093D102A093D202B093D302BF91B0
:1029F000AF919F918F913F912F910F900FBE0F90AC
:102A00001F90189526E8230F0296A11DB11DD2CF65
:102A10002FB7F8946091CC027091CD028091CE02D4
:102A20009091CF022FBF08953FB7F8948091D002C4
:102A30009091D102A091D202B091D30226B5A89B69
:102A400005C02F3F19F00196A11DB11D3FBFBA2F40
:102A5000A92F982F8827BC01CD01620F711D811D00
:102A6000911D42E0660F771F881F991F4A95D1F785
:102A700008958F929F92AF92BF92CF92DF92EF9282
:102A8000FF926B017C010E9414154B015C01C11483
:102A9000D104E104F104E9F00E9484160E941415A7
:102AA000681979098A099B09683E73408105910577
:102AB00070F321E0C21AD108E108F10888EE880E0F
:102AC00083E0981EA11CB11CC114D104E104F104DF
:102AD00029F7FF90EF90DF90CF90BF90AF909F903D
:102AE0008F900895789484B5826084BD84B58160A8
:102AF00084BD85B5826085BD85B5816085BDEEE606
:102B0000F0E0808181608083E1E8F0E010828081E4
:102B100082608083808181608083E0E8F0E0808152
:102B200081608083E1EBF0E0808184608083E0EB72
:102B3000F0E0808181608083EAE7F0E0808184605A
:102B400080838081826080838081816080838081B6
:102B5000806880831092C10008958E3008F08E50F6
:102B600020911C0190E4299F900111248770822BF1
:102B700080937C0080917A00806480937A008091B9
:102B80007A0086FDFCCF80917800909179000895BD
:102B9000833081F028F4813099F08230A9F00895D3
:102BA0008730A9F08830C9F08430B1F4809180007A
:102BB0008F7D03C0809180008F778093800008957F
:102BC00084B58F7784BD089584B58F7DFBCF8091C8
:102BD000B0008F778093B00008958091B0008F7D12
:102BE000F9CFCF93DF9390E0FC01EF56FE4F249195
:102BF0008B559E4FFC0184918823C9F090E0880F8B
:102C0000991FFC01E353FE4FA591B491FC01ED53D4
:102C1000FE4FC591D49161110DC09FB7F8948C916E
:102C2000209582238C938881282328839FBFDF915E
:102C3000CF910895623051F49FB7F8943C91822F60
:102C4000809583238C93E8812E2BEFCF8FB7F89458
:102C5000EC912E2B2C938FBFEACF1F93CF93DF9352
:102C6000282F30E0F901E358FE4F8491F901EF5627
:102C7000FE4FD491F901EB55FE4FC491CC23A9F03E
:102C8000162F81110E94C815EC2FF0E0EE0FFF1FE8
:102C9000ED53FE4FA591B4918FB7F894EC911111BB
:102CA00008C0D095DE23DC938FBFDF91CF911F91B9
:102CB0000895DE2BF8CFCF93DF93282F30E0F90172
:102CC000E358FE4F8491F901EF56FE4FD491F9017C
:102CD000EB55FE4FC491CC23A1F081110E94C81581
:102CE000EC2FF0E0EE0FFF1FE754FE4FA591B491DB
:102CF000EC91ED2381E090E009F480E0DF91CF9149
:102D0000089580E090E0FACF08955058BB27AA2795
:102D10000E949D160C9427180E94191838F00E94E2
:102D2000201820F039F49F3F19F426F40C9416185B
:102D30000EF4E095E7FB0C94E717E92F0E94381892
:102D400058F3BA17620773078407950720F079F4E0
:102D5000A6F50C9472180EF4E0950B2EBA2FA02D48
:102D60000B01B90190010C01CA01A0011124FF2738
:102D7000591B99F0593F50F4503E68F11A16F04033
:102D8000A22F232F342F4427585FF3CF4695379532
:102D90002795A795F0405395C9F77EF41F16BA0BF7
:102DA000620B730B840BBAF09150A1F0FF0FBB1FA5
:102DB000661F771F881FC2F70EC0BA0F621F731FEE
:102DC000841F48F4879577956795B795F7959E3F4B
:102DD00008F0B0CF9395880F08F09927EE0F9795DC
:102DE000879508950E945A1890F09F3748F49111E2
:102DF00016F40C94731860E070E080E89FE3089587
:102E000026F01B16611D711D811D0C94ED170C948D
:102E100008180E941D170C9427180E94201858F0BB
:102E20000E94191840F029F45F3F29F00C94E7172D
:102E300051110C9473180C9416180E94381868F3EA
:102E40009923B1F3552391F3951B550BBB27AA2763
:102E500062177307840738F09F5F5F4F220F331F9D
:102E6000441FAA1FA9F335D00E2E3AF0E0E832D065
:102E700091505040E695001CCAF72BD0FE2F29D068
:102E8000660F771F881FBB1F261737074807AB073A
:102E9000B0E809F0BB0B802DBF01FF2793585F4FAF
:102EA0003AF09E3F510578F00C94E7170C94731894
:102EB0005F3FE4F3983ED4F3869577956795B79591
:102EC000F7959F5FC9F7880F911D9695879597F99C
:102ED0000895E1E0660F771F881FBB1F6217730715
:102EE0008407BA0720F0621B730B840BBA0BEE1F2A
:102EF00088F7E09508950E94401888F09F5798F051
:102F0000B92F9927B751B0F0E1F0660F771F881FEE
:102F1000991F1AF0BA95C9F714C0B13091F00E9408
:102F20007218B1E008950C947218672F782F8827D3
:102F3000B85F39F0B93FCCF3869577956795B3952F
:102F4000D9F73EF490958095709561957F4F8F4F9E
:102F50009F4F0895E89409C097FB3EF490958095A3
:102F6000709561957F4F8F4F9F4F9923A9F0F92F4F
:102F700096E9BB279395F695879577956795B795CD
:102F8000F111F8CFFAF4BB0F11F460FF1BC06F5FB3
:102F90007F4F8F4F9F4F16C0882311F096E911C0C5
:102FA000772321F09EE8872F762F05C0662371F0E6
:102FB00096E8862F70E060E02AF09A95660F771FFA
:102FC000881FDAF7880F9695879597F9089597F9EE
:102FD0009F6780E870E060E00895882371F47723AC
:102FE00021F09850872B762F07C0662311F499277C
:102FF0000DC09051862B70E060E02AF09A95660F24
:10300000771F881FDAF7880F9695879597F90895A7
:103010009F3F31F0915020F4879577956795B7954C
:10302000880F911D9695879597F908959FEF80ECED
:10303000089500240A94161617061806090608951E
:1030400000240A9412161306140605060895092E84
:103050000394000C11F4882352F0BB0F40F4BF2BF3
:1030600011F460FF04C06F5F7F4F8F4F9F4F089533
:1030700057FD9058440F551F59F05F3F71F0479529
:10308000880F97FB991F61F09F3F79F0879508950E
:10309000121613061406551FF2CF4695F1DF08C02D
:1030A000161617061806991FF1CF8695710561054A
:1030B000089408950E944018A0F0BEE7B91788F45C
:1030C000BB279F3860F41616B11D672F782F88270D
:1030D000985FF7CF869577956795B11D939596394B
:1030E000C8F30895E894BB2766277727CB0197F9A3
:1030F00008950E948C180C9427180E94191838F013
:103100000E94201820F0952311F00C94E7170C94DE
:10311000161811240C9473180E94381870F3959F98
:10312000C1F3950F50E0551F629FF001729FBB27BE
:10313000F00DB11D639FAA27F00DB11DAA1F649F5A
:103140006627B00DA11D661F829F2227B00DA11D0D
:10315000621F739FB00DA11D621F839FA00D611D93
:10316000221F749F3327A00D611D231F849F600DB4
:10317000211D822F762F6A2F11249F5750409AF0DD
:10318000F1F088234AF0EE0FFF1FBB1F661F771F69
:10319000881F91505040A9F79E3F510580F00C9434
:1031A000E7170C9473185F3FE4F3983ED4F38695C9
:1031B00077956795B795F795E7959F5FC1F7FE2BD4
:1031C000880F911D9695879597F90895991B79E039
:1031D00004C0991F961708F0961B881F7A95C9F7A7
:1031E0008095089587FB082E062687FD819567FD4B
:1031F00061950E94E6180EF4919507FC819508955B
:10320000A1E21A2EAA1BBB1BFD010DC0AA1FBB1FEA
:10321000EE1FFF1FA217B307E407F50720F0A21B5C
:10322000B30BE40BF50B661F771F881F991F1A94C9
:1032300069F760957095809590959B01AC01BD01F3
:10324000CF010895052E97FB1EF400940E943919B2
:1032500057FD07D00E94001907FC03D04EF40C94D0
:10326000391950954095309521953F4F4F4F5F4FFD
:10327000089590958095709561957F4F8F4F9F4FE2
:103280000895EE0FFF1F0590F491E02D0994A29F81
:10329000B001B39FC001A39F700D811D1124911D2A
:1032A000B29F700D811D1124911D08950E94471930
:1032B000A59F900DB49F900DA49F800D911D11248A
:1032C0000895B7FF0C9456190E945619821B930B50
:1032D00008958F929F92AF92BF92CF92DF92EF921A
:1032E000FF92CF93DF93EC01688179818A819B8182
:1032F000611571058105910521F464E279ED8BE595
:1033000097E02DE133EF41E050E00E94221949019E
:103310005A019B01AC01A7EAB1E40E9456196B0166
:103320007C01ACEEB4EFA50194010E946419C60EB5
:10333000D71EE81EF91EF7FE06C081E0C81AD108A4
:10334000E10880E8F80AC882D982EA82FB82C701D4
:10335000B6019F77DF91CF91FF90EF90DF90CF90F4
:10336000BF90AF909F908F9008958F929F92AF9251
:10337000BF92CF92DF92EF92FF9260910001709125
:103380000101809102019091030161157105810590
:10339000910521F464E279ED8BE597E02DE133EFBF
:1033A00041E050E00E94221949015A019B01AC0101
:1033B000A7EAB1E40E9456196B017C01ACEEB4EFB0
:1033C000A50194010E946419C60ED71EE81EF91EBD
:1033D000F7FE06C081E0C81AD108E10880E8F80AC3
:1033E000C0920001D0920101E0920201F09203012B
:1033F000C701B6019F77FF90EF90DF90CF90BF900D
:10340000AF909F908F900895609300017093010199
:1034100080930201909303010895FB01DC0102C037
:1034200005900D9241505040D8F70895F999FECF7C
:1034300092BD81BDF89A992780B50895262FF999F4
:10344000FECF1FBA92BD81BD20BD0FB6F894FA9A87
:0C345000F99A0FBE01960895F894FFCF82
:10345C000100000001010101010101FA2317FF2BFA
:10346C00001A0501060082322846460101010602B7
:10347C000705000409080306050403020D020801F0
:10348C000906040305000700000000BE0FED0F5BEA
:0A349C000F870F5E0F650F780F0019
:00000001FF
